:100000000C942E000C944B000C944B000C94460264
:100010000C944B000C944B000C944B000C946B0212
:100020000C944B000C944B000C944B000C944B0024
:100030000C944B000C944B000C944B000C944B0014
:100040000C944B000C944B000C944B000C944B0004
:100050000C944B000C944B000C944B0011241FBECD
:10006000CFEFD4E0DEBFCDBF11E0A0E0B1E0E2E42D
:10007000F6E002C005900D92AC32B107D9F723E04B
:10008000ACE2B1E001C01D92A135B207E1F70E94D8
:100090004B010C941F030C940000E4EEF0E080810F
:1000A0008068808380818064808380818F7E80836C
:1000B00080818E7F8083E5EEF0E0808180688083A0
:1000C00080818F7B80838081806380838081876053
:1000D0008083E6EEF0E080818F7880838081876086
:1000E0008083E7EEF0E080818F71808380818F6074
:1000F00080830895CF93C62F66307105C0F575953E
:100100006795FB01E451FF4F90ED980F9A3060F432
:10011000A82FB0E0D097AA0FBB1FAA0FBB1FA050FB
:10012000BF4F4D915C9102C040E050E020E030E0D4
:100130001BC0942F9F70529542954F7045275F705A
:100140004527C0FD05C08081807F892B808309C041
:100150008081682F6F7070E1979FC0011124862BFA
:10016000808335962F5F3F4F2430310514F3CF91B4
:1001700008958F929F92AF92BF92CF92DF92EF92AB
:10018000FF924B015C0184E088169104A104B10444
:100190000CF180FE22C00F2EF3E0CF2ED12CE12CEB
:1001A000F12CF02D0FC0C501B401A70196010E94EA
:1001B0009D02672B682B692B99F08FEFC81AD80A1C
:1001C000E80AF80AC814D904EA04FB0464F381E0DD
:1001D00090E008C081E090E005C080E090E002C0BF
:1001E00080E090E0FF90EF90DF90CF90BF90AF90D5
:1001F0009F908F9008958F929F92AF92BF92CF92CF
:10020000DF92EF92FF92CF93DF934B015C01EA0103
:1002100024E630E040E050E00E949D020F2EFAE01C
:10022000CF2ED12CE12CF12CF02DA70196010E94AC
:100230009D02BE0180E3820F0E947A002196C501D3
:10024000B401A70196010E949D02862FBE01805D28
:100250000E947A00DF91CF91FF90EF90DF90CF90D6
:10026000BF90AF909F908F900895EC01C12CD12C3E
:100270007601C394C701B6010E94B900892B29F009
:10028000AE01C701B6010E94FB008FEFC81AD80A61
:10029000E80AF80AEFCF0E948F020E944D0060E04A
:1002A00070E085E391E00E94D90183E090E00E9434
:1002B000350184B7806884BFE9E6F0E0808183601F
:1002C00080838DB381688DBBECE6F0E0808180682F
:1002D00080837894789480E090E015C0AC014F5F03
:1002E0005F4F6DE6649F9001659F300D112423568A
:1002F0003E4F689FF001699FF00D1124E356FE4FB9
:1003000035832483CA018330910544F31092E902B6
:100310001092E80281E090E090932D0180932C01EF
:1003200010928500109284000895DC0115961C92AD
:100330001E921497DB01ED91FC911197309721F4F7
:100340008D939C930895F901248135812115310500
:10035000D1F7958384830895DC01ED91FC91119789
:10036000309709F4FFCF248135812D933C93CF0141
:100370000895CF93DF9300D0CDB7DEB79A838983FA
:10038000809128019091290106960E94DE02892B16
:1003900059F489819A81909329018093280161E021
:1003A00070E006960E94FE020F900F90DF91CF91B1
:1003B0000895EF92FF920F931F93CF93DF9300D096
:1003C000CDB7DEB77C018B01F89480912C01909120
:1003D0002D01892B11F40E9459018AE291E00E94BB
:1003E000AC019A838983FC01F182E082138302834A
:1003F0001582148206960E94DE020197E1F4789439
:10040000A0912801B0912901ED91FC9111971296CC
:100410008D919C9113970995F8946AE271E080910F
:100420002801909129010E9495018EE291E00E949D
:10043000AC010E94B901E981FA81369689819A81DD
:1004400087599F4F918B808BE981FA81918F808FA3
:100450006EE271E0CF010E94950178940F900F90A9
:10046000DF91CF911F910F91FF90EF9008956EE271
:1004700071E080912801909129010E9495018EE2FE
:1004800091E00E94AC010E94B90108951F920F9261
:100490000FB60F9211242F933F934F935F936F9357
:1004A0007F938F939F93AF93BF93EF93FF931F9B84
:1004B0000E943702FF91EF91BF91AF919F918F9171
:1004C0007F916F915F914F913F912F910F900FBE50
:1004D0000F901F9018951F920F920FB60F92112434
:1004E0002F933F934F935F936F937F938F939F933C
:1004F000AF93BF93EF93FF930E943702FF91EF9169
:10050000BF91AF919F918F917F916F915F914F912B
:100510003F912F910F900FBE0F901F901895E1E61D
:10052000F0E080E880831082E1E8F0E0808185607F
:10053000808385B1806885B90895052E97FB1EF4E8
:1005400000940E94B40257FD07D00E94BC0207FC31
:1005500003D04EF40C94B4025095409530952195FB
:100560003F4F4F4F5F4F08959095809570956195DF
:100570007F4F8F4F9F4F0895A1E21A2EAA1BBB1BDE
:10058000FD010DC0AA1FBB1FEE1FFF1FA217B3075F
:10059000E407F50720F0A21BB30BE40BF50B661F75
:1005A000771F881F991F1A9469F760957095809539
:1005B00090959B01AC01BD01CF010895DC012D9206
:1005C0003D924D925D926D927D928D929D92AD92F3
:1005D000BD92CD92DD92ED92FD920D931D93CD9340
:1005E000DD93FF91EF918DB78D938EB78D938FB77C
:1005F0008D93ED93FD93882799270994DC01CB0116
:1006000081309105811D2D903D904D905D906D90B4
:100610007D908D909D90AD90BD90CD90DD90ED90B2
:10062000FD900D911D91CD91DD91ED91FD910D907C
:10063000F894FEBF0FBEEDBFED91FD910994F894C3
:02064000FFCFEA
:100642005115000010010000111E0000111B0000D6
:10065200500B0000411B0000411F0000110100006F
:0C066200511F0000511B000030019D01E1
:00000001FF
