:100000000C942E000C9443000C9443000C94430079
:100010000C9443000C9443000C9443000C94430054
:100020000C9443000C9443000C9443000C94430044
:100030000C9443000C9443000C9443000C94430034
:100040000C9443000C9443000C9443000C94430024
:100050000C9443000C9443000C94430011241FBEE5
:10006000CFEFD4E0DEBFCDBF11E0A0E0B1E0E2E130
:10007000F6E002C005900D92A832B107D9F70E94B0
:1000800040020C9407030C940000CF93C62F6630F7
:100090007105D8F575956795FB01E451FF4F90ED1B
:1000A000980F9A3060F4A82FB0E0D097AA0FBB1F2A
:1000B000AA0FBB1FA050BF4F4D915C9102C040E002
:1000C00050E020E030E01EC0942F9F705295429582
:1000D0004F7045275F704527C0FD07C08081807F36
:1000E00080838081892B80830AC080818F70808388
:1000F000608170E1979FC0011124862B8083359623
:100100002F5F3F4F24303105FCF280E090E0CF912B
:1001100008950F931F93CF93DF938C01CB0165E07C
:1001200070E00E949E02EC010CC0BE010E944500DE
:10013000CE01019665E070E00E949E02EC010F5F27
:100140001F4FF80180818111F0CF80E090E0DF91B6
:10015000CF911F910F910895E4EEF0E080818068C7
:10016000808380818064808380818F7E8083808192
:100170008E7F8083E5EEF0E08081806880838081DF
:100180008F7B808380818063808380818760808390
:10019000E6EEF0E080818F788083808187608083C5
:1001A000E7EEF0E080818F71808380818F608083B3
:1001B00080E090E00895CF93DF93CDB7DEB72C9722
:1001C0000FB6F894DEBF0FBECDBFAE014F5F5F4FDD
:1001D0000E945802BE016D5F7F4F89819A810E9403
:1001E0007B0260E070E0CE0103960E9489002C96AD
:1001F0000FB6F894DEBF0FBECDBFDF91CF9108954B
:100200008F929F92AF92BF92CF92DF92EF92FF9226
:100210004B015C0184E088169104A104B10464F1EF
:1002200080FE2DC00F2EF3E0CF2ED12CE12CF12C2F
:10023000F02D0FC0C501B401A70196010E94B202C2
:10024000672B682B692BF1F08FEFC81AD80AE80AE0
:10025000F80AD501C401BB201CF40196A11DB11DF3
:10026000B595A79597958795C816D906EA06FB0612
:100270000CF381E090E008C081E090E005C080E0F0
:1002800090E002C080E090E0FF90EF90DF90CF9090
:10029000BF90AF909F908F9008958091F40080FD63
:1002A00006C0E4EFF0E080818160808306C0E4EF67
:1002B000F0E0908181E08927808380E090E00895DC
:1002C000E1E6F0E080E880831082E1E8F0E0808100
:1002D0008460808385B1806885B980E090E008956E
:1002E000CF92DF92EF92FF926B017C0183E0C81600
:1002F000D104E104F10474F0C0FC06C08FEFC81A09
:10030000D80AE80AF80A0BC082E0C80ED11CE11C2A
:10031000F11C05C08FEFC81AD80AE80AF80AC7010D
:10032000B6010E940001019709F7C701B601FF90CD
:10033000EF90DF90CF9008958091F90080FF0CC07E
:10034000E9EFF0E0908181E089278083EEEFF0E033
:100350008081816080830895E9EFF0E08081816091
:100360008083EEEFF0E0908181E08927808308951B
:10037000EF92FF920F931F93CF93DF93EC018A01CB
:10038000E0908400F09085008E159F0560F486173C
:10039000970718F46E157F0530F0EC16FD0618F07F
:1003A0000E944D01E7011F990FC0F8018081811162
:1003B00002C081E08083F8018081823059F40E947C
:1003C0009C01F801108206C0F8018081813011F48F
:1003D00082E08083CE01DF91CF911F910F91FF903A
:1003E000EF900895CF93DF9300D000D01F92CDB748
:1003F000DEB7E9EFF0E08081816080838091840046
:1004000090918500875F924C9A83898389819A8134
:1004100089509D439C838B8381E08D830F2EF9E16E
:10042000CF2ED12CE12CF12CF02D02C075016401EE
:10043000C701B6010E9470014B015C016B817C8198
:1004400089819A81AE014B5F5F4F0E94B80129817B
:100450003A818217930751F089819A819C838B831B
:1004600089819A81875F924C9A838983C814D904C1
:10047000EA04FB04D9F2C701B6010E94DB00D6CF23
:100480000E9460010E94AC000E94F201DC01FC01AC
:1004900001C0319680818111FCCF319705C08081E8
:1004A0009C9190838D933197EA17FB07C0F70895CD
:1004B000CF92DF92EF92FF92CF93DF936B017C019B
:1004C000EA0120E432E44FE050E00E94B20260E42E
:1004D00072E4269FC001279F900D369F900D112436
:1004E000C81AD90AD982C882DF91CF91FF90EF90C4
:1004F000DF90CF900895CF93DF93EB010097A1F4A5
:1005000080E38883198217C0282F6AE070E00E9478
:100510009E02862F972F660F362F330F330F630FF0
:10052000261B205D219301C0FB01009769F7108213
:10053000CE010E944602DF91CF91089597FB072ECE
:1005400016F4009407D077FD09D00E94D10207FC71
:1005500005D03EF4909581959F4F089570956195D3
:100560007F4F0895052E97FB1EF400940E94C90248
:1005700057FD07D00E94E50207FC03D04EF40C940F
:10058000C90250954095309521953F4F4F4F5F4F91
:10059000089590958095709561957F4F8F4F9F4FEF
:1005A0000895AA1BBB1B51E107C0AA1FBB1FA617BA
:1005B000B70710F0A61BB70B881F991F5A95A9F70C
:1005C00080959095BC01CD010895A1E21A2EAA1B39
:1005D000BB1BFD010DC0AA1FBB1FEE1FFF1FA217F3
:1005E000B307E407F50720F0A21BB30BE40BF50BF0
:1005F000661F771F881F991F1A9469F76095709579
:10060000809590959B01AC01BD01CF010895F894B0
:02061000FFCF1A
:100612005115000010010000111E0000111B000006
:10062200500B0000411B0000411F0000110100009F
:08063200511F0000511B0000E4
:00000001FF
