:100000000C942E000C9438000C9438000C9438009A
:100010000C9438000C9438000C9438000C94380080
:100020000C9438000C9438000C9438000C94380070
:100030000C9438000C9438000C9438000C94380060
:100040000C9438000C9438000C9438000C94380050
:100050000C9438000C9438000C94380011241FBE06
:10006000CFEFD4E0DEBFCDBF0E948D000C9499008D
:100070000C940000E4EEF0E0808180688083808151
:100080008064808380818F7E808380818E7F808367
:10009000E5EEF0E080818068808380818F7B8083C3
:1000A000808180638083808187608083E6EEF0E0DA
:1000B00080818F788083808187608083E7EEF0E0A5
:1000C00080818F71808380818F60808380E090E069
:1000D00008958091EC00823019F41092EC0003C076
:1000E00082E08093EC0080E090E00895E1E6F0E0AB
:1000F00080E880831082E1E8F0E080818460808382
:1001000085B1806885B980E090E008951F9BFECF9F
:100110001F99FECF0E946900F9CF0E947600892BBB
:1001200009F0FFCF0E943A00892B09F0FFCF0E940F
:060130008600F894FFCFE9
:00000001FF
