:100000000C942E000C9443000C9443000C94430079
:100010000C9443000C9443000C9443000C94430054
:100020000C9443000C9443000C9443000C94430044
:100030000C9443000C9443000C9443000C94430034
:100040000C9443000C9443000C9443000C94430024
:100050000C9443000C9443000C94430011241FBEE5
:10006000CFEFD4E0DEBFCDBF11E0A0E0B1E0E8EE1D
:10007000F6E002C005900D92A832B107D9F70E94B0
:1000800051020C9472030C940000CF93C62F66307B
:100090007105D8F575956795FB01E451FF4F90ED1B
:1000A000980F9A3060F4A82FB0E0D097AA0FBB1F2A
:1000B000AA0FBB1FA050BF4F4D915C9102C040E002
:1000C00050E020E030E01EC0942F9F705295429582
:1000D0004F7045275F704527C0FD07C08081807F36
:1000E00080838081892B80830AC080818F70808388
:1000F000608170E1979FC0011124862B8083359623
:100100002F5F3F4F24303105FCF280E090E0CF912B
:1001100008950F931F93CF93DF938C01CB0165E07C
:1001200070E00E94EF02EC010CC0BE010E9445008D
:10013000CE01019665E070E00E94EF02EC010F5FD6
:100140001F4FF80180818111F0CF80E090E0DF91B6
:10015000CF911F910F910895E4EEF0E080818068C7
:10016000808380818064808380818F7E8083808192
:100170008E7F8083E5EEF0E08081806880838081DF
:100180008F7B808380818063808380818760808390
:10019000E6EEF0E080818F788083808187608083C5
:1001A000E7EEF0E080818F71808380818F608083B3
:1001B00080E090E00895CF93DF93CDB7DEB72C9722
:1001C0000FB6F894DEBF0FBECDBFAE014F5F5F4FDD
:1001D0000E947302BE016D5F7F4F89819A810E94E8
:1001E000BA0260E070E0CE0103960E9489002C966E
:1001F0000FB6F894DEBF0FBECDBFDF91CF9108954B
:100200008F929F92AF92BF92CF92DF92EF92FF9226
:100210004B015C0184E088169104A104B10464F1EF
:1002200080FE2DC00F2EF3E0CF2ED12CE12CF12C2F
:10023000F02D0FC0C501B401A70196010E94030370
:10024000672B682B692BF1F08FEFC81AD80AE80AE0
:10025000F80AD501C401BB201CF40196A11DB11DF3
:10026000B595A79597958795C816D906EA06FB0612
:100270000CF381E090E008C081E090E005C080E0F0
:1002800090E002C080E090E0FF90EF90DF90CF9090
:10029000BF90AF909F908F9008958091EC0081FD6A
:1002A00006C0ECEEF0E080818260808306C0ECEE58
:1002B000F0E0908182E08927808380E090E00895DB
:1002C000C0918400D09185002091840030918500F8
:1002D000CE01875F924C28173907B1F7C09184008F
:1002E000D09185000E944D01EFCFE1E6F0E080E87B
:1002F00080831082E1E8F0E080818460808385B1B2
:10030000806885B980E090E00895CF92DF92EF9207
:10031000FF926B017C0183E0C816D104E104F10473
:1003200074F0C0FC06C08FEFC81AD80AE80AF80AB1
:100330000BC082E0C80ED11CE11CF11C05C08FEF80
:10034000C81AD80AE80AF80AC701B6010E940001D3
:10035000019709F7C701B601FF90EF90DF90CF90AA
:100360000895EF92FF920F931F93CF93DF9300D0E6
:10037000CDB7DEB78A01E0908400F09085008E153D
:100380009F0560F48617970718F46E157F0530F007
:10039000E816F90618F00E944D01C7011F9929C0FF
:1003A0001A821982F8012081211102C021E02083E4
:1003B000F8012081223019F52091ED00223059F406
:1003C000EDEEF0E0308123272083EEEEF0E0208197
:1003D000226020830BC0EDEEF0E0208122602083BC
:1003E000EEEEF0E0308122E023272083F801108236
:1003F00006C0F8012081213011F422E020830F9003
:100400000F90DF91CF911F910F91FF90EF90089582
:10041000CF93DF9300D000D01F92CDB7DEB7EDEEC3
:10042000F0E08081826080838091840090918500DB
:10043000875F924C9A83898389819A8189509D43F1
:100440009C838B831D82C12CD12C760102C0750147
:100450006401C701B6010E9485014B015C016B81FB
:100460007C8189819A81AE014B5F5F4F0E94B1010F
:1004700029813A818217930751F089819A819C835F
:100480008B8389819A81875F924C9A838983C81470
:10049000D904EA04FB04D9F2C701B6010E94DB00CB
:1004A000D6CF0E947501892B11F00E9460010E9435
:1004B000AC00892B11F00E9460010E940802DC014F
:1004C000FC0101C0319680818111FCCF319705C0BC
:1004D00080819C9190838D933197EA17FB07C0F739
:1004E00080E090E00895CF92DF92EF92FF920F9319
:1004F0001F93CF93DF9300D000D0CDB7DEB76B0151
:100500007C018A0120E432E44FE050E00E940303C2
:1005100029833A834B835C8329813A814B815C81B7
:1005200060E472E48FE090E00E94DF0269837A83E6
:100530008B839C8389819A81AB81BC81C81AD90A3B
:10054000EA0AFB0AC982DA82EB82FC8289819A81FB
:10055000AB81BC81F801918380830F900F900F9045
:100560000F90DF91CF911F910F91FF90EF90DF904F
:10057000CF900895CF93DF93EB010097A1F480E330
:100580008883198217C0282F6AE070E00E94EF026A
:10059000862F972F660F362F330F330F630F261BCF
:1005A000205D219301C0FB01009769F71082CE0105
:1005B0000E945F0280E090E0DF91CF910895DB011F
:1005C0008F939F930E942203BF91AF91A29F800DB2
:1005D000911DA39F900DB29F900D1124089597FB3C
:1005E000072E16F4009407D077FD09D00E942D0342
:1005F00007FC05D03EF4909581959F4F0895709526
:1006000061957F4F0895052E97FB1EF400940E947C
:100610001A0357FD07D00E94410307FC03D04EF494
:100620000C941A0350954095309521953F4F4F4FAC
:100630005F4F089590958095709561957F4F8F4F8E
:100640009F4F08950E946303A59F900DB49F900D46
:10065000A49F800D911D11240895AA1BBB1B51E17D
:1006600007C0AA1FBB1FA617B70710F0A61BB70B22
:10067000881F991F5A95A9F780959095BC01CD01C7
:100680000895A1E21A2EAA1BBB1BFD010DC0AA1FD3
:10069000BB1FEE1FFF1FA217B307E407F50720F0EB
:1006A000A21BB30BE40BF50B661F771F881F991F66
:1006B0001A9469F760957095809590959B01AC01AF
:1006C000BD01CF010895A29FB001B39FC001A39FB8
:1006D000700D811D1124911DB29F700D811D11247B
:0806E000911D0895F894FFCF6D
:1006E8005115000010010000111E0000111B000030
:1006F800500B0000411B0000411F000011010000C9
:08070800511F0000511B00000D
:00000001FF
