S00C00006C6162312E73726563B8
S11300000C942E000C9443000C9443000C94430075
S11300100C9443000C9443000C9443000C94430050
S11300200C9443000C9443000C9443000C94430040
S11300300C9443000C9443000C9443000C94430030
S11300400C9443000C9443000C9443000C94430020
S11300500C9443000C9443000C94430011241FBEE1
S1130060CFEFD4E0DEBFCDBF11E0A0E0B1E0EAEA1B
S1130070F4E002C005900D92A832B107D9F70E94AE
S11300809A010C9453020C940000FB01762FE63085
S1130090F10508F047C0F595E795E451FF4FDF01FE
S11300A020E030E008C070FD03C09C91907F9C93D9
S11300B015962F5F3F4F24303105ACF390ED980F28
S11300C09A3060F4A82FB0E0D097AA0FBB1FAA0FF4
S11300D0BB1FA050BF4F4D915C9102C040E050E067
S11300E020E030E019C0942F9F70529542954F70D4
S11300F045275F70452770FD05C08081807F892B6F
S1130100808307C06081A0E19A9FC0011124862BDF
S1130110808335962F5F3F4F2430310524F380E0F0
S113012090E0089508950F931F93CF93DF938C016C
S1130130CB0165E070E00E94EA01EC010CC0BE0155
S11301400E944500CE01019665E070E00E94EA013C
S1130150EC010F5F1F4FF80180818111F0CF80E027
S113016090E0DF91CF911F910F910895E4EEF0E0BC
S113017080818068808380818064808380818F7E99
S1130180808380818E7F8083E5EEF0E080818068CB
S1130190808380818F7B8083808180638083808162
S11301A087608083E6EEF0E080818F7880838081B1
S11301B087608083E7EEF0E080818F7180838081A7
S11301C08F60808380E090E00895CF92DF92EF9279
S11301D0FF92CF936B017C0184E0C816D104E10443
S11301E0F10424F1C0FE25C0C3E009C0C701B60173
S11301F00E94FE01672B682B692BF1F0CE5F2C2F38
S113020030E040E050E0D701C601FF201CF4019625
S1130210A11DB11DB595A795979587952817390701
S11302204A075B071CF381E090E008C081E090E09E
S113023005C080E090E002C080E090E0CF91FF90A4
S1130240EF90DF90CF900895CF93DF93CDB7DEB7D3
S11302502A970FB6F894DEBF0FBECDBFC12CD12CA8
S11302607601C39483E0C816D104E104F10474F068
S1130270C0FC06C08FEFC81AD80AE80AF80A0BC0F7
S113028082E0C80ED11CE11CF11C05C08FEFC81A16
S1130290D80AE80AF80AC701B6010E94E5000197E6
S11302A009F7C701B6010E94BD01BE016F5F7F4F10
S11302B090E00E94C50160E070E0CE0101960E94CA
S11302C09300D0CF8091EC0081FD06C0ECEEF0E00D
S11302D080818260808306C0ECEEF0E0908182E051
S11302E08927808380E090E00895C0918400D091B4
S11302F085002091840030918500CE01875F924C67
S113030028173907B1F7C0918400D09185000E9465
S11303106201EFCFE1E6F0E080E880831082E1E85B
S1130320F0E080818460808385B1806885B980E055
S113033090E008950E948A01892B11F00E947501B2
S11303400E94B600892B11F00E9475010E942401BD
S1130350FFCFDC01FC0101C0319680818111FCCF0B
S1130360319705C080819C9190838D933197EA17D2
S1130370FB07C0F780E090E0089520E432E44FE00A
S113038050E00E94FE01CB010895CF93DF93EB016F
S11303900097A1F480E38883198217C0282F6AE0AC
S11303A070E00E94EA01862F972F660F362F330FD5
S11303B0330F630F261B205D219301C0FB010097BF
S11303C069F71082CE010E94A90180E090E0DF91DC
S11303D0CF91089597FB072E16F4009407D077FD6C
S11303E009D00E941D0207FC05D03EF4909581952A
S11303F09F4F0895709561957F4F0895052E97FB43
S11304001EF400940E94150257FD07D00E94310289
S113041007FC03D04EF40C9415025095409530958A
S113042021953F4F4F4F5F4F08959095809570955C
S113043061957F4F8F4F9F4F0895AA1BBB1B51E1BE
S113044007C0AA1FBB1FA617B70710F0A61BB70B40
S1130450881F991F5A95A9F780959095BC01CD01E5
S11304600895A1E21A2EAA1BBB1BFD010DC0AA1FF1
S1130470BB1FEE1FFF1FA217B307E407F50720F009
S1130480A21BB30BE40BF50B661F771F881F991F84
S11304901A9469F760957095809590959B01AC01CD
S10D04A0BD01CF010895F894FFCFC9
S11304AA5115000010010000111E0000111B00006C
S11304BA500B0000411B0000411F00001101000005
S10B04CA511F0000511B00004A
S9030000FC
