S00C00006C6162312E73726563B8
S11300000C942E000C9443000C9443000C94430075
S11300100C9443000C9443000C9443000C94430050
S11300200C9443000C9443000C9443000C94430040
S11300300C9443000C9443000C9443000C94430030
S11300400C9443000C9443000C9443000C94430020
S11300500C9443000C9443000C94430011241FBEE1
S1130060CFEFD4E0DEBFCDBF11E0A0E0B1E0E0ED22
S1130070F5E002C005900D92A832B107D9F70E94AD
S11300801F020C94E6020C940000CF93C62F663036
S11300907105D8F575956795FB01E451FF4F90ED17
S11300A0980F9A3060F4A82FB0E0D097AA0FBB1F26
S11300B0AA0FBB1FA050BF4F4D915C9102C040E0FE
S11300C050E020E030E01EC0942F9F70529542957E
S11300D04F7045275F704527C0FD07C08081807F32
S11300E080838081892B80830AC080818F70808384
S11300F0608170E1979FC0011124862B808335961F
S11301002F5F3F4F24303105FCF2CF9108950F93B8
S11301101F93CF93DF938C01CB0165E070E00E94C5
S11301207D02EC010CC0BE010E944500CE01019687
S113013065E070E00E947D02EC010F5F1F4FF80143
S113014080818111F0CFDF91CF911F910F9108959C
S1130150E4EEF0E080818068808380818064808325
S113016080818F7E808380818E7F8083E5EEF0E0C6
S113017080818068808380818F7B8083808180639D
S11301808083808187608083E6EEF0E080818F78D1
S11301908083808187608083E7EEF0E080818F71C7
S11301A0808380818F6080830895CF93DF93CDB760
S11301B0DEB72C970FB6F894DEBF0FBECDBFAE01ED
S11301C04F5F5F4F0E943702BE016D5F7F4F898191
S11301D09A810E945A0260E070E0CE0103960E9468
S11301E087002C960FB6F894DEBF0FBECDBFDF910B
S11301F0CF9108958F929F92AF92BF92CF92DF9248
S1130200EF92FF924B015C0184E088169104A104F3
S1130210B1040CF180FE22C00F2EF3E0CF2ED12CBE
S1130220E12CF12CF02D0FC0C501B401A7019601FA
S11302300E949102672B682B692B99F08FEFC81AE3
S1130240D80AE80AF80AC814D904EA04FB0464F3D7
S113025081E090E008C081E090E005C080E090E09B
S113026002C080E090E0FF90EF90DF90CF90BF90CD
S1130270AF909F908F9008958091F40080FD06C008
S1130280E4EFF0E08081816080830895E4EFF0E0A2
S1130290908181E0892780830895E1E6F0E080E899
S11302A080831082E1E8F0E080818460808385B1FE
S11302B0806885B90895CF93DF93EC018881998193
S11302C0AA81BB8183309105A105B10564F080FD4D
S11302D002C0249609C00296A11DB11D888399838A
S11302E0AA83BB8301C02496688179818A819B811A
S11302F00E94FA00019711F7DF91CF910895809140
S1130300F90080FF0CC0E9EFF0E0908181E08927DB
S11303108083EEEFF0E08081816080830895E9EFCF
S1130320F0E0808181608083EEEFF0E0908181E0F5
S1130330892780830895EF92FF920F931F93CF93A1
S1130340DF93EC018A01E0908400F09085008E1523
S11303509F0560F48617970718F46E157F0530F033
S1130360EC16FD0618F00E943C01E7011F990FC02E
S1130370F8018081811102C081E08083F8018081CD
S1130380823059F40E947F01F801108206C0F801FE
S11303908081813011F482E08083CE01DF91CF919E
S11303A01F910F91FF90EF900895CF93DF93CDB7F6
S11303B0DEB729970FB6F894DEBF0FBECDBFE9EFC5
S11303C0F0E0808181608083809184009091850039
S11303D0875F924C9A83898389819A8189509D434E
S11303E09C838B8381E08D8381E090E0A0E0B0E08A
S11303F08E839F83A887B987CE0106960E945B01EE
S11304006B817C8189819A81AE014B5F5F4F0E9431
S11304109B0129813A818217930751F089819A813E
S11304209C838B8389819A81875F924C9A83898389
S11304306E817F81888599850E94D500DDCF0E94D9
S11304404D010E94A8000E94D501DC01FC0101C0FD
S1130450319680818111FCCF319705C080819C91B8
S113046090838D933197EA17FB07C0F70895CF92D5
S1130470DF92EF92FF92CF93DF936B017C01EA014D
S113048020E432E44FE050E00E94910260E472E420
S1130490269FC001279F900D369F900D1124C81AE6
S11304A0D90AD982C882DF91CF91FF90EF90DF9073
S11304B0CF900895CF93DF93EB010097A1F480E3ED
S11304C08883198217C0282F6AE070E00E947D0299
S11304D0862F972F660F362F330F330F630F261B8C
S11304E0205D219301C0FB01009769F71082CE01C2
S11304F00E942502DF91CF91089597FB072E16F4F1
S1130500009407D077FD09D00E94B00207FC05D003
S11305103EF4909581959F4F0895709561957F4F16
S11305200895052E97FB1EF400940E94A80257FD1F
S113053007D00E94C40207FC03D04EF40C94A80216
S113054050954095309521953F4F4F4F5F4F0895FB
S113055090958095709561957F4F8F4F9F4F08952B
S1130560AA1BBB1B51E107C0AA1FBB1FA617B707D5
S113057010F0A61BB70B881F991F5A95A9F78095F1
S11305809095BC01CD010895A1E21A2EAA1BBB1BB4
S1130590FD010DC0AA1FBB1FEE1FFF1FA217B3074B
S11305A0E407F50720F0A21BB30BE40BF50B661F61
S11305B0771F881F991F1A9469F760957095809525
S11305C090959B01AC01BD01CF010895F894FFCF34
S11305D05115000010010000111E0000111B000045
S11305E0500B0000411B0000411F000011010000DE
S10B05F0511F0000511B000023
S9030000FC
