:100000000C942E000C9443000C9443000C94430079
:100010000C9443000C9443000C9443000C94430054
:100020000C9443000C9443000C9443000C94430044
:100030000C9443000C9443000C9443000C94430034
:100040000C9443000C9443000C9443000C94430024
:100050000C9443000C9443000C94430011241FBEE5
:10006000CFEFD4E0DEBFCDBF11E0A0E0B1E0EAE425
:10007000F1E002C005900D92A030B107D9F70E94BF
:1000800097000C94A3000C940000E4EEF0E0808153
:100090008068808380818064808380818F7E80837C
:1000A00080818E7F8083E5EEF0E0808180688083B0
:1000B00080818F7B80838081806380838081876063
:1000C0008083E6EEF0E080818F7880838081876096
:1000D0008083E7EEF0E080818F71808380818F6084
:1000E000808380E090E00895E1E6F0E080E880839E
:1000F0001082E1E8F0E080818460808385B18068CF
:1001000085B980E090E008951F9BFECF1F99FECF38
:100110008091ED00823029F41092ED008093EE0082
:10012000F3CF82E08093ED001092EE00EDCF0E94BD
:100130007400892B09F0FFCF0E944500892B09F03C
:0A014000FFCF0E948400F894FFCF67
:00000001FF
