:100000000C942E000C9443000C9443000C94430079
:100010000C9443000C9443000C9443000C94430054
:100020000C9443000C9443000C9443000C94430044
:100030000C9443000C9443000C9443000C94430034
:100040000C9443000C9443000C9443000C94430024
:100050000C9443000C9443000C94430011241FBEE5
:10006000CFEFD4E0DEBFCDBF11E0A0E0B1E0E8E229
:10007000F4E002C005900D92A832B107D9F70E94B2
:1000800035010C9412020C940000809100018093C1
:10009000EC0080E090E008950F931F93CF93DF93DF
:1000A0008C01CB0165E070E00E94A901EC010CC05D
:1000B000BE010E944500CE01019665E070E00E94FD
:1000C000A901EC010F5F1F4FF80180818111F0CF72
:1000D00080E090E0DF91CF911F910F910895E4EEC1
:1000E000F0E080818068808380818064808380816B
:1000F0008F7E808380818E7F8083E5EEF0E080813B
:100100008068808380818F7B80838081806380830F
:10011000808187608083E6EEF0E080818F78808345
:10012000808187608083E7EEF0E080818F7180833B
:1001300080818F60808380E090E00895CF92DF928D
:10014000EF92FF92CF936B017C0184E0C816D1043B
:10015000E104F10424F1C0FE25C0C3E009C0C701D9
:10016000B6010E94BD01672B682B692BF1F0CE5FB1
:100170002C2F30E040E050E0D701C601FF201CF4F6
:100180000196A11DB11DB595A7959795879528173F
:1001900039074A075B071CF381E090E008C081E063
:1001A00090E005C080E090E002C080E090E0CF9158
:1001B000FF90EF90DF90CF900895E1E6F0E080E8C7
:1001C00080831082E1E8F0E080818460808385B1E3
:1001D000806885B980E090E00895CF92DF92EF9239
:1001E000FF926B017C0183E0C816D104E104F104A5
:1001F00074F0C0FC06C08FEFC81AD80AE80AF80AE3
:100200000BC082E0C80ED11CE11CF11C05C08FEFB1
:10021000C81AD80AE80AF80AC701B6010E949E0067
:10022000019709F7C701B601FF90EF90DF90CF90DB
:100230000895CF93DF9300D000D0CDB7DEB72091E3
:10024000840030918500860F971F2817390710F01A
:100250003C832B831F9902C01A8219820F900F9042
:100260000F900F90DF91CF910895CF93DF93CDB78B
:10027000DEB72A970FB6F894DEBF0FBECDBF0E943F
:10028000DD00892B09F0FFCF0E946F00892B09F058
:10029000FFCF0091840010918500C12CD12C7601F4
:1002A000C701B6010E94ED006B017C01B80189E035
:1002B0009DE30E9419018C01C701B6010E948101D2
:1002C000BE016F5F7F4F90E00E94890160E070E0A7
:1002D000CE0101960E944C00E3CFDC01FC0101C07D
:1002E000319680818111FCCF319705C080819C912E
:1002F00090838D933197EA17FB07C0F780E090E079
:10030000089528EE33E040E050E00E94BD01CB01AB
:100310000895CF93C62F472FE62FF72F0FC0282F12
:100320006AE070E00E94A901862F972F660F362F92
:10033000330F330F630F261B205D2193009779F74E
:1003400010828C2F942F0E946D0180E090E0CF915D
:10035000089597FB072E16F4009407D077FD09D077
:100360000E94DC0107FC05D03EF4909581959F4FDB
:100370000895709561957F4F0895052E97FB1EF4A3
:1003800000940E94D40157FD07D00E94F00107FCA1
:1003900003D04EF40C94D40150954095309521959E
:1003A0003F4F4F4F5F4F08959095809570956195A1
:1003B0007F4F8F4F9F4F0895AA1BBB1B51E107C072
:1003C000AA1FBB1FA617B70710F0A61BB70B881FE5
:1003D000991F5A95A9F780959095BC01CD01089574
:1003E000A1E21A2EAA1BBB1BFD010DC0AA1FBB1F39
:1003F000EE1FFF1FA217B307E407F50720F0A21BAB
:10040000B30BE40BF50B661F771F881F991F1A9417
:1004100069F760957095809590959B01AC01BD0141
:08042000CF010895F894FFCF0D
:100428005115000010010000111E0000111B0000F2
:10043800500B0000411B0000411F0000110100008B
:08044800511F0000511B0000D0
:00000001FF
