S00C00006C6162312E73726563B8
S11300000C942E000C9443000C9443000C94430075
S11300100C9443000C9443000C9443000C94430050
S11300200C9443000C9443000C9443000C94430040
S11300300C9443000C9443000C9443000C94430030
S11300400C9443000C9443000C9443000C94430020
S11300500C9443000C9443000C94430011241FBEE1
S1130060CFEFD4E0DEBFCDBF11E0A0E0B1E0E2E924
S1130070F5E002C005900D92A832B107D9F70E94AD
S113008023020C94C7020C940000E4EEF0E080819B
S11300908068808380818064808380818F7E808378
S11300A080818E7F8083E5EEF0E0808180688083AC
S11300B080818F7B8083808180638083808187605F
S11300C08083E6EEF0E080818F7880838081876092
S11300D08083E7EEF0E080818F71808380818F6080
S11300E080830895CF93C62F66307105C0F575954A
S11300F06795FB01E451FF4F90ED980F9A3060F43F
S1130100A82FB0E0D097AA0FBB1FAA0FBB1FA05007
S1130110BF4F4D915C9102C040E050E020E030E0E0
S11301201BC0942F9F70529542954F7045275F7066
S11301304527C0FD05C08081807F892B808309C04D
S11301408081682F6F7070E1979FC0011124862B06
S1130150808335962F5F3F4F2430310514F3CF91C0
S11301600895CF92DF92EF92FF920F931F93CF9354
S1130170DF9300D000D0CDB7DEB76B017C01672BD5
S1130180682B692B71F565E070E080E30E947200D2
S113019000E010E006C0B80180E00E9472000F5F2A
S11301A01F4F05301105BCF32EC0C701B6012AE06C
S11301B030E040E050E00E9472027A836983C22EEC
S11301C0D32EE42EF52E89819A81BE016D5F7F4F77
S11301D00E943B028B81B8010E94720001501109F8
S11301E002C005E010E0C114D104E104F10449F0B7
S11301F01123DCF606C0B80180E00E9472000150B1
S113020011091123C4F70F900F900F900F90DF91F5
S1130210CF911F910F91FF90EF90DF90CF900895B1
S11302208F929F92AF92BF92CF92DF92EF92FF9202
S11302304B015C0184E088169104A104B1040CF123
S113024080FE22C00F2EF3E0CF2ED12CE12CF12C16
S1130250F02D0FC0C501B401A70196010E947202DE
S1130260672B682B692B99F08FEFC81AD80AE80A14
S1130270F80AC814D904EA04FB0464F381E090E0AA
S113028008C081E090E005C080E090E002C080E01A
S113029090E0FF90EF90DF90CF90BF90AF909F9051
S11302A08F9008958091F40080FD06C0E4EFF0E0A3
S11302B08081816080830895E4EFF0E0908181E0A3
S11302C0892780830895E1E6F0E080E88083108246
S11302D0E1E8F0E080818460808385B1806885B93D
S11302E00895CF93DF93EC0188819981AA81BB8122
S11302F0BC01CD016F5F7F4F8F4F9F4F6883798320
S11303008A839B830E941001019771F7DF91CF913B
S113031008958091F90080FF0CC0E9EFF0E090812E
S113032081E089278083EEEFF0E080818160808323
S11303300895E9EFF0E0808181608083EEEFF0E0E2
S1130340908181E0892780830895EF92FF920F9333
S11303501F93CF93DF93EC018A01E0908400F09027
S11303608500E816F90660F08617970718F46E15ED
S11303707F0518F46C177D0718F40E945201E701F9
S11303801F990FC0F8018081811102C081E0808330
S1130390F8018081823059F40E948901F8011082A9
S11303A006C0F8018081813011F482E08083CE019F
S11303B0DF91CF911F910F91FF90EF900895CF930C
S11303C0DF93CDB7DEB729970FB6F894DEBF0FBE23
S11303D0CDBFE9EFF0E0808181608083809184006B
S11303E090918500875F924C9A83898389819A8151
S11303F089509D439C838B8381E08D831E821F8261
S113040018861986CE0106960E9471016B817C8143
S113041089819A81AE014B5F5F4F0E94A5012981BA
S11304203A818217930741F09C838B838B819C8153
S1130430875F924C9A8389836E817F8188859985B1
S11304400E94B100DFCF0E9463010E9445000E9418
S1130450DF01DC01FC0101C0319680818111FCCFF8
S1130460319705C080819C9190838D933197EA17D1
S1130470FB07C0F70895CF93DF93EB010097A1F436
S113048080E38883198217C0282F6AE070E00E94F5
S11304905E02862F972F660F362F330F330F630FAD
S11304A0261B205D219301C0FB01009769F7108290
S11304B0CE010E942902DF91CF91089597FB072E68
S11304C016F4009407D077FD09D00E94910207FC2E
S11304D005D03EF4909581959F4F08957095619550
S11304E07F4F0895052E97FB1EF400940E94890205
S11304F057FD07D00E94A50207FC03D04EF40C94CC
S1130500890250954095309521953F4F4F4F5F4F4D
S1130510089590958095709561957F4F8F4F9F4F6B
S11305200895AA1BBB1B51E107C0AA1FBB1FA61736
S1130530B70710F0A61BB70B881F991F5A95A9F788
S113054080959095BC01CD010895A1E21A2EAA1BB5
S1130550BB1BFD010DC0AA1FBB1FEE1FFF1FA2176F
S1130560B307E407F50720F0A21BB30BE40BF50B6C
S1130570661F771F881F991F1A9469F760957095F5
S1130580809590959B01AC01BD01CF010895F8942D
S1050590FFCF97
S11305925115000010010000111E0000111B000083
S11305A2500B0000411B0000411F0000110100001C
S10B05B2511F0000511B000061
S9030000FC
