S00C00006C6162312E73726563B8
S11300000C942E000C9438000C9438000C94380096
S11300100C9438000C9438000C9438000C9438007C
S11300200C9438000C9438000C9438000C9438006C
S11300300C9438000C9438000C9438000C9438005C
S11300400C9438000C9438000C9438000C9438004C
S11300500C9438000C9438000C94380011241FBE02
S1130060CFEFD4E0DEBFCDBF0E9473000C948300B9
S11300700C9400008FEF9FEF0895E4EEF0E0808190
S11300808068808380818064808380818F7E808388
S113009080818E7F8083E5EEF0E080818F7780839E
S11300A080818F7B808380818F7C8083808183604B
S11300B08083E6EEF0E080818F778083808181E029
S11300C08083E7EEF0E0808180838081807180838B
S11300D080E090E00895E1E6F0E080E8808310821B
S11300E080E090E008950E946B00892B09F0FFCF17
S11300F00E943D00892B09F0FFCF61E070E081E6AA
S10D01000E943A00FFCFF894FFCFED
S9030000FC
