:100000000C942E000C944B000C944B000C944B0061
:100010000C944B000C944B000C944B000C94A204D9
:100020000C944B000C944B000C944B000C944B0024
:100030000C944B000C944B000C944B000C944B0014
:100040000C944B000C944B000C944B000C944B0004
:100050000C944B000C944B000C944B0011241FBECD
:10006000CFEFD4E0DEBFCDBF11E0A0E0B1E0E4EF20
:10007000FAE002C005900D92AE32B107D9F723E045
:10008000AEE2B1E001C01D92A535B207E1F70E94D2
:10009000B1020C9478050C940000CF93DF93CDB798
:1000A000DEB784EE90E024EE30E0F9012081206894
:1000B000FC01208384EE90E024EE30E0F901208101
:1000C0002064FC01208384EE90E024EE30E0F9010E
:1000D00020812F7EFC01208384EE90E024EE30E02E
:1000E000F90120812E7FFC01208385EE90E025EE32
:1000F00030E0F90120812068FC01208385EE90E04A
:1001000025EE30E0F90120812F7BFC01208385EE74
:1001100090E025EE30E0F90120812063FC0120838E
:1001200085EE90E025EE30E0F90120812760FC01AA
:10013000208386EE90E026EE30E0F90120812F78D2
:10014000FC01208386EE90E026EE30E0F90120816C
:100150002760FC01208387EE90E027EE30E0F90174
:1001600020812F71FC01208387EE90E027EE30E0A4
:10017000F90120812F60FC0120830000DF91CF91E5
:100180000895CF93DF93CDB7DEB72A970FB6F894D3
:10019000DEBF0FBECDBF88877A87698789859A853C
:1001A00099230CF480C089859A8506970CF07BC052
:1001B0001A82198289859A859595879584519F4FD2
:1001C0009C838B8388858033A0F088858A3388F46C
:1001D0008885882F90E0C097880F991F880F991FF6
:1001E00080509F4FFC0180819181A281B3819A83CD
:1001F00089831E821D8251C089818F708F8389817E
:100200009A81929582958F7089279F7089279A830A
:10021000898389859A8581709927892BB1F48B818F
:100220009C81FC018081282F207F8B819C81FC0197
:1002300020838B819C81FC0190818F81292F282B29
:100240008B819C81FC0120831EC08B819C81FC01E1
:100250008081282F2F708B819C81FC0120838B81D2
:100260009C81FC018081282F8F81882F90E08295CE
:100270009295907F9827807F9827822B282F8B81BB
:100280009C81FC0120838B819C8105969C838B83C0
:100290008D819E8101969E838D838D819E810497A1
:1002A0000CF4AACF01C000002A960FB6F894DEBF66
:1002B0000FBECDBFDF91CF910895CF93DF93CDB720
:1002C000DEB728970FB6F894DEBF0FBECDBF6D83A3
:1002D0007E838F8398878D819E81AF81B8850497B7
:1002E000A105B1051CF481E090E047C08D819E819D
:1002F000AF81B88581709927AA27BB27892B8A2BC4
:100300008B2B19F480E090E038C083E090E0A0E00F
:10031000B0E089839A83AB83BC8320C08D819E81AA
:10032000AF81B88529813A814B815C81BC01CD01C7
:100330000E94F604DC01CB01892B8A2B8B2B19F44C
:1003400080E090E01AC089819A81AB81BC810196DE
:10035000A11DB11D89839A83AB83BC8329813A8116
:100360004B815C818D819E81AF81B88528173907CB
:100370004A075B079CF281E090E028960FB6F8945C
:10038000DEBF0FBECDBFDF91CF910895CF93DF9336
:10039000CDB7DEB784EF90E024EF30E0F901308193
:1003A00021E02327FC0120830000DF91CF910895F5
:1003B000CF93DF9300D000D0CDB7DEB789E09DE3C7
:1003C0009A83898384E890E0FC01808191819C83F9
:1003D0008B8300000E94DF040A97E4F30E94EA0482
:1003E00084E890E0FC01808191819C838B830E9452
:1003F000C601EFCF0F931F93CF93DF9300D000D0B0
:1004000000D0CDB7DEB769837A838B839C835E830C
:100410004D8389819A81AB81BC8124E630E040E044
:1004200050E0BC01CD010E94F604DC01CB012AE0C2
:1004300030E040E050E0BC01CD010E94F604DA015A
:10044000C90120E3280F8D819E81BC01822F0E946B
:10045000C1008D819E818C010F5F1F4F89819A8120
:10046000AB81BC812AE030E040E050E0BC01CD012E
:100470000E94F604DC01CB01805DB8010E94C1003E
:10048000000026960FB6F894DEBF0FBECDBFDF91F9
:10049000CF911F910F910895CF93DF9300D000D09B
:1004A00000D0CDB7DEB79E838D8381E090E0A0E0E1
:1004B000B0E089839A83AB83BC8389819A81AB81C5
:1004C000BC81BC01CD010E945D01892B59F02D81B9
:1004D0003E8189819A81AB81BC81A901BC01CD019A
:1004E0000E94FA0189819A81AB81BC810196A11D8C
:1004F000B11D89839A83AB83BC83DFCFCF93DF9316
:1005000000D0CDB7DEB789EE93E89A8389830000E7
:1005100083E290E0FC0180818823D4F789819A816D
:10052000FC01808121E0280F89819A81FC012083D0
:1005300089819A81FC018081882F90E0A0E0B0E061
:1005400044E050E0BC01CD010E94FA01000083E2CA
:1005500090E0FC018081881F8827881F8130B9F3D3
:10056000D6CFCF93DF93CDB7DEB789EF90E029EFF9
:1005700030E0F90120812160FC0120830E944D00C0
:1005800060E070E088ED91E00E940B0460E070E0B4
:100590008EE792E00E940B0480E090E00E944C0203
:1005A00080E090E0DF91CF910895CF93DF9300D06A
:1005B00000D000D0CDB7DEB784E890E09C838B8379
:1005C00081E690E020E8FC01208381E690E0FC01D8
:1005D000108281E890E021E830E0F9012081256077
:1005E000FC01208385E290E025E230E0F9012081E2
:1005F0002068FC01208384E590E024E530E0F901E7
:1006000020812068FC01208389E690E029E630E023
:10061000F90120812360FC0120838DE390E02DE32C
:1006200030E0F90120812168FC0120838CE690E014
:100630002CE630E0F90120812068FC0120838FE660
:1006400090E02FE630E0F90120812260FC01208358
:1006500088E890E09E838D838D819E8127E831E03C
:10066000FC01318320831A82198220C089819A81FA
:100670009C012F5F3F4F4DE6429FC001439F900D6D
:1006800011249C012F553E4F49815A816DE6649F8C
:10069000C001659F900D11248B559E4FFC01318345
:1006A000208389819A8101969A83898389819A819D
:1006B0000397E4F21092ED021092EC028B819C8180
:1006C000FC011182108281E090E0909333018093CD
:1006D00032017894000026960FB6F894DEBF0FBE64
:1006E000CDBFDF91CF910895CF93DF9300D000D09D
:1006F00000D0CDB7DEB79C838B837E836D838B81E7
:100700009C81FC01158214828D819E81FC01808177
:100710009181892B41F48D819E812B813C81FC014B
:10072000318320831DC08D819E81FC018081918158
:100730009A83898307C089819A81FC01848195818C
:100740009A83898389819A81FC0184819581892B8F
:1007500091F789819A812B813C81FC013583248327
:10076000000026960FB6F894DEBF0FBECDBFDF9116
:10077000CF910895CF93DF9300D000D0CDB7DEB7EF
:100780009C838B838B819C81FC01808191819A83E6
:1007900089838B819C81FC0180819181892B71F0FF
:1007A0008B819C81FC0180819181FC0124813581B8
:1007B0008B819C81FC013183208301C0FFCF898123
:1007C0009A810F900F900F900F90DF91CF91089525
:1007D000CF93DF9300D0CDB7DEB79A838983809122
:1007E0002C0190912D0106960E943705892B69F402
:1007F00089819A8190932D0180932C0189819A811E
:10080000069661E070E00E94570500000F900F907F
:10081000DF91CF910895CF93DF9300D000D000D027
:10082000CDB7DEB79C838B837E836D83F8948091F4
:10083000320190913301892B11F40E94D5028AE292
:1008400091E00E94BA039A83898389819A812B81DE
:100850003C81FC013183208389819A812D813E81F5
:10086000FC013383228389819A81FC0115821482E1
:1008700089819A8106960E943705019701F578943F
:1008800080912C0190912D01FC012081318180917A
:100890002C0190912D01FC0182819381F901099530
:1008A000F89480912C0190912D016AE271E00E94F0
:1008B000740380E391E00E94BA030E94E8038981F7
:1008C0009A810696409629813A81235E3F4F245BA8
:1008D0003F4FFC013183208389819A81069642969D
:1008E00029813A81235E3F4F245B3F4FFC013183D6
:1008F000208389819A8160E371E00E947403789477
:10090000000026960FB6F894DEBF0FBECDBFDF9174
:10091000CF910895CF93DF93CDB7DEB7F894809150
:100920002C0190912D0160E371E00E94740380E33B
:1009300091E00E94BA030E94E80378940000DF91DE
:10094000CF9108951F920F9200905F000F92112493
:100950002F933F934F935F936F937F938F939F93C7
:10096000AF93BF93EF93FF93CF93DF93CDB7DEB7F2
:1009700080912E0190912F01019690932F018093E9
:100980002E018091280190912901FC011182108291
:100990000E948A040000DF91CF91FF91EF91BF91F7
:1009A000AF919F918F917F916F915F914F913F9107
:1009B0002F910F9000925F000F901F901895CF938A
:1009C000DF93CDB7DEB780912E0190912F01DF919B
:1009D000CF910895CF93DF93CDB7DEB710922F015B
:1009E00010922E010000DF91CF910895052E97FB04
:1009F0001EF400940E940D0557FD07D00E941505B6
:100A000007FC03D04EF40C940D055095409530959D
:100A100021953F4F4F4F5F4F08959095809570956A
:100A200061957F4F8F4F9F4F0895A1E21A2EAA1B09
:100A3000BB1BFD010DC0AA1FBB1FEE1FFF1FA2178E
:100A4000B307E407F50720F0A21BB30BE40BF50B8B
:100A5000661F771F881F991F1A9469F76095709514
:100A6000809590959B01AC01BD01CF010895DC01FB
:100A70002D923D924D925D926D927D928D929D92BE
:100A8000AD92BD92CD92DD92ED92FD920D931D93AC
:100A9000CD93DD93FF91EF918DB78D938EB78D93AD
:100AA0008FB78D93ED93FD93882799270994DC01E7
:100AB000CB0181309105811D2D903D904D905D9031
:100AC0006D907D908D909D90AD90BD90CD90DD907E
:100AD000ED90FD900D911D91CD91DD91ED91FD91E8
:100AE0000D90F894FEBF0FBEEDBFED91FD910994FE
:040AF000F894FFCFA8
:100AF4005115000010010000111E0000111B000020
:100B0400500B0000411B0000411F000011010000B8
:0E0B1400511F0000511B00008400A10134019C
:00000001FF
