:100000000C942E000C945A040C94C9040C943805DA
:100010000C94A7050C9416060C944B000C94810CC0
:100020000C944B000C942F0C0C9485060C94F40645
:100030000C9463070C94D2070C9441080C94B008FC
:100040000C941F090C948E090C94FD090C946C0AF5
:100050000C94DB0A0C944A0B0C94B90B11241FBEB0
:10006000CFEFD4E0DEBFCDBF11E0A0E0B1E0E2EE23
:10007000F0E202C005900D92A235B107D9F724E055
:10008000A2E5B1E001C01D92A93AB207E1F70E94D2
:100090003D020C946F100C9400008F929F92AF92CF
:1000A000BF92CF92DF92EF92FF920F931F93CF9365
:1000B000DF9300D01F92CDB7DEB75C014B0144E067
:1000C00050E06EE771E0FC01868197810E942A0E64
:1000D0008B8347E050E06EE771E0F5018681978100
:1000E0000E942A0E8A8346E050E06EE771E0F50137
:1000F000868197810E942A0E898329818A8190E0D6
:10010000820F911D2B81820F911D029709F057C01C
:100110008981811115C0F50104811581CC24C39416
:10012000D12C0F2EFBE7EF2EFFE0FF2EF02D20E06D
:1001300030E0A90160E070E0CB010E94210D2EC0EB
:100140008A81811115C0F50104811581CC24CA94DE
:10015000DC2C0F2EFBE7EF2EFFE0FF2EF02D20E032
:1001600030E0A90160E070E0CB010E94210D16C0D3
:100170008B81811124C0F50104811581C12CD12C02
:100180000F2EFDE8EF2EFFE0FF2EF02D20E030E0F7
:10019000A90160E070E0CB010E94210D64010F2EE7
:1001A000FDE4EF2EF0E0FF2EF02D850120E030E0A1
:1001B000A90169E07DE380E090E00E94210D0F90AD
:1001C0000F900F90DF91CF911F910F91FF90EF90C3
:1001D000DF90CF90BF90AF909F908F900895CF9277
:1001E000DF92EF92FF920F931F93CF93DF9300D094
:1001F000CDB7DEB78C0142E050E06AE671E0FC0169
:10020000868197810E942A0E898343E050E06AE646
:1002100071E0F801868197810E942A0E8A832A81E3
:10022000898190E0820F911D019771F58A8181117A
:1002300015C0F80104811581CC24C394D12C0F2E54
:10024000F8E7EF2EFFE0FF2EF02D20E030E0A901CF
:1002500060E070E0CB010E94210D16C08981811100
:1002600013C0F80104811581C12CD12C0F2EF8E7A1
:10027000EF2EFFE0FF2EF02D20E030E0A90160E03E
:1002800070E0CB010E94210D0F900F90DF91CF9174
:100290001F910F91FF90EF90DF90CF9008956830FD
:1002A00050F481E090E002C0880F991F6A95E2F750
:1002B0009CB1892B8CB90895683058F481E090E0A6
:1002C00002C0880F991F6A95E2F780959CB1892337
:1002D0008CB90895683088F481E090E0062E02C061
:1002E000880F991F0A94E2F79CB1892390E002C01D
:1002F000959587956A95E2F708950895683088F492
:1003000081E090E0062E02C0880F991F0A94E2F760
:1003100093B1892390E002C0959587956A95E2F79D
:1003200008950895E4EEF0E08081806C8E7E8083F5
:10033000E5EEF0E08081876B8083E6EEF0E080817F
:10034000887887608083E7EEF0E0808180718F603D
:1003500080830895CF93C62F66307105C0F57595DB
:100360006795FB01E451FF4F90ED980F9A3060F4D0
:10037000A82FB0E0D097AA0FBB1FAA0FBB1FA05099
:10038000BF4F4D915C9102C040E050E020E030E072
:100390001BC0942F9F70529542954F7045275F70F8
:1003A0004527C0FD05C08081807F892B808309C0DF
:1003B0008081682F6F7070E1979FC0011124862B98
:1003C000808335962F5F3F4F2430310514F3CF9152
:1003D00008950F931F93CF93DF93182F062FC42FE9
:1003E000D0E021971AC09DEC199F912D1124892FDF
:1003F000869586958695880F282F220F220F820FCB
:10040000181B812F192F169516951695BE01600F92
:10041000711D805D0E94AA012197DD2324F7DF91E1
:10042000CF911F910F9108958DB180658DB98EB1D7
:1004300080658EB9089585B1806D85B98EB18C6067
:100440008EB98DB3806C8DBBEBE6F0E080818C6063
:100450008083ECE6F0E08081806D808341E06FEE88
:1004600070E088E291E00E94040F42E06DE470E0E9
:1004700088E291E00E94040F08950E9492010E9478
:1004800014020E941B0240E050E06AEA7FE080E331
:1004900091E00E941F0F0895BF92CF92DF92EF92DA
:1004A000FF920F931F93CF93DF93EC016C81662330
:1004B00009F45AC070E088EE93E00E94F70FF62E20
:1004C000B62E4D8150E06CE571E08E819F810E94D7
:1004D0002A0ECD800E811F81F6942F2D30E0ADE7DE
:1004E000B0E00E940B10382F292FD12C862F972F88
:1004F000A32FB22FBC01CD01959587957795679570
:1005000095958795779567950F2EFFE4EF2EF1E08F
:10051000FF2EF02D20E030E0A9010E94210D2B2DAF
:1005200030E0ADE7B0E00E940B10382F292F862F66
:10053000972FA32FB22FBC01CD0195958795779565
:1005400067959595879577956795C12CD12C0F2E3A
:10055000FCE4EF2EF2E0FF2EF02D8E0120E030E0E3
:10056000A9010E94210D12C0C12CD12C0F2EFCE438
:10057000EF2EF2E0FF2EF02D8C0120E030E0A901FB
:1005800062E17AE780E090E00E94210DDF91CF9157
:100590001F910F91FF90EF90DF90CF90BF90089543
:1005A000CF93DF9300D000D0CDB7DEB780E090E0EE
:1005B00018C0AC014F5F5F4F9A0122953295307F92
:1005C0003227207F3227275C3D4F82959295907F7E
:1005D0009827807F9827FC01E75CFD4F31832083BB
:1005E000CA018E3091052CF310921A031092190350
:1005F00080E090E015C0AC014F5F5F4F6DE1649FFC
:100600009001659F300D11242C573E4F689FF001DB
:10061000699FF00D1124EC57FE4F31832083CA01EE
:100620008330910544F31092DC011092DB011A82B1
:10063000198232C02DE149815A81249FC001259F32
:10064000900D1124FC01E657FE4FFC83EB83CF0194
:100650000E942E1020E649815A81249FC001259FC7
:10066000900D11248B579C4FEB81FC81918B808BDB
:10067000938B828B8CEA9EE0968B858B8DE1849F99
:10068000F001859FF00D1124EC57FE4F1582148266
:100690004F5F5F4F5A83498329813A812430310566
:1006A0004CF2ECE1F2E01182108215821482138286
:1006B0001282E1E6F0E080E88083108210928500EB
:1006C0001092840084E08093810081E080936F0029
:1006D0000F900F900F900F90DF91CF910895CF93CF
:1006E000DF9300D0CDB7DEB79A83898380914A012A
:1006F00090914B0106960E942E10892B59F4898106
:100700009A8190934B0180934A0161E070E00696D4
:100710000E944E100F900F90DF91CF9108950F938C
:100720001F93CF93DF93DC01CB01EB01E881F981CB
:10073000C0E0D0E004C0EF010190F081E02D3097DF
:1007400079F0068117812085318516964D915D914E
:100750006D917C91199740175107620773075CF7F9
:100760001196FC93EE93209721F4FC01B183A083B2
:1007700002C0B983A883DF91CF911F910F91089593
:100780000F931F93CF93DF93DC01CB01EB01E88143
:10079000F981C0E0D0E004C0EF010190F081E02DCC
:1007A000309779F0028113812481358112964D9121
:1007B0005D916D917C911597401751076207730702
:1007C0005CF71196FC93EE93209721F4FC01B18322
:1007D000A08302C0B983A883DF91CF911F910F91AD
:1007E0000895DC01ED91FC911197309759F48FEF4A
:1007F0008093EC008093ED008093EE0081E083BF56
:100800008895FCCF208131812D933C93CF010895B1
:10081000FB0120813181FC0131832083FB01918325
:1008200080830895FB0120813181FC013183208385
:10083000FB01918380830895DC01ED91FC91119778
:10084000208131812D933C93CF010895CF93DF9385
:10085000E0914C01F0914D01C281D381E0915E01A4
:10086000F0915F01309719F180914E0190914F0105
:10087000892BE9F0209769F086819781A085B18561
:100880004E815F8168857985841B950BA60BB70B1C
:1008900072F48EE491E00E941C046CE471E00E940A
:1008A000120480914C0190914D010E946F03DF91E1
:1008B000CF9108951F920F920FB60F9211240F93AC
:1008C0001F932F933F934F935F936F937F938F93D8
:1008D0009F93AF93BF93EF93FF93809156019091B5
:1008E0005701AC01092E000C660B770B9A011127FA
:1008F0000027409184005091850060E070E0402B1B
:10090000512B622B732B40935801509359016093E4
:100910005A0170935B01B09B1AC00196092E000C1E
:10092000AA0BBB0BBC0155274427809184009091F2
:100930008500A0E0B0E0842B952BA62BB72B8093ED
:10094000580190935901A0935A01B0935B01E09133
:10095000F801F091F901309739F060E070E0809192
:1009600060019091610109950E942604FF91EF9129
:10097000BF91AF919F918F917F916F915F914F91B7
:100980003F912F911F910F910F900FBE0F901F90CD
:1009900018951F920F920FB60F9211240F931F9369
:1009A0002F933F934F935F936F937F938F939F9377
:1009B000AF93BF93EF93FF938091560190915701AE
:1009C000AC01092E000C660B770B9A01112700274A
:1009D000409184005091850060E070E0402B512BE5
:1009E000622B732B409358015093590160935A0125
:1009F00070935B01B09B1AC00196092E000CAA0BE4
:100A0000BB0BBC0155274427809184009091850041
:100A1000A0E0B0E0842B952BA62BB72B8093580138
:100A200090935901A0935A01B0935B01E091FA01B0
:100A3000F091FB01309739F061E070E08091620144
:100A40009091630109950E942604FF91EF91BF9157
:100A5000AF919F918F917F916F915F914F913F9156
:100A60002F911F910F910F900FBE0F901F9018950F
:100A70001F920F920FB60F9211240F931F932F9373
:100A80003F934F935F936F937F938F939F93AF9316
:100A9000BF93EF93FF938091560190915701AC0162
:100AA000092E000C660B770B9A0111270027409145
:100AB00084005091850060E070E0402B512B622B48
:100AC000732B409358015093590160935A017093CE
:100AD0005B01B09B1AC00196092E000CAA0BBB0B40
:100AE000BC01552744278091840090918500A0E0A7
:100AF000B0E0842B952BA62BB72B809358019093B5
:100B00005901A0935A01B0935B01E091FC01F0916F
:100B1000FD01309739F062E070E0809164019091BE
:100B2000650109950E942604FF91EF91BF91AF9155
:100B30009F918F917F916F915F914F913F912F91F5
:100B40001F910F910F900FBE0F901F9018951F923D
:100B50000F920FB60F9211240F931F932F933F9371
:100B60004F935F936F937F938F939F93AF93BF93B5
:100B7000EF93FF938091560190915701AC01092E9C
:100B8000000C660B770B9A01112700274091840017
:100B90005091850060E070E0402B512B622B732B4D
:100BA000409358015093590160935A0170935B012F
:100BB000B09B1AC00196092E000CAA0BBB0BBC01FE
:100BC000552744278091840090918500A0E0B0E0F3
:100BD000842B952BA62BB72B80935801909359010A
:100BE000A0935A01B0935B01E091FE01F091FF01E7
:100BF000309739F063E070E0809166019091670171
:100C000009950E942604FF91EF91BF91AF919F91AA
:100C10008F917F916F915F914F913F912F911F9194
:100C20000F910F900FBE0F901F9018951F920F926B
:100C30000FB60F9211240F931F932F933F934F934F
:100C40005F936F937F938F939F93AF93BF93EF9334
:100C5000FF938091560190915701AC01092E000C31
:100C6000660B770B9A011127002740918400509161
:100C7000850060E070E0402B512B622B732B40937A
:100C800058015093590160935A0170935B01B09BD6
:100C90001AC00196092E000CAA0BBB0BBC015527EC
:100CA00044278091840090918500A0E0B0E0842BDF
:100CB000952BA62BB72B8093580190935901A093A5
:100CC0005A01B0935B01E0910002F091010230976C
:100CD00039F064E070E080916801909169010995B4
:100CE0000E942604FF91EF91BF91AF919F918F9148
:100CF0007F916F915F914F913F912F911F910F9134
:100D00000F900FBE0F901F9018951F920F920FB665
:100D10000F9211240F931F932F933F934F935F9341
:100D20006F937F938F939F93AF93BF93EF93FF93B3
:100D30008091560190915701AC01092E000C660B71
:100D4000770B9A011127002740918400509185006C
:100D500060E070E0402B512B622B732B40935801C5
:100D60005093590160935A0170935B01B09B1AC074
:100D70000196092E000CAA0BBB0BBC01552744277A
:100D80008091840090918500A0E0B0E0842B952BA9
:100D9000A62BB72B8093580190935901A0935A0129
:100DA000B0935B01E0910202F0910302309739F0B9
:100DB00065E070E080916A0190916B0109950E9455
:100DC0002604FF91EF91BF91AF919F918F917F91F9
:100DD0006F915F914F913F912F911F910F910F90C4
:100DE0000FBE0F901F9018951F920F920FB60F9283
:100DF00011240F931F932F933F934F935F936F9300
:100E00007F938F939F93AF93BF93EF93FF938091C3
:100E1000560190915701AC01092E000C660B770B1F
:100E20009A0111270027409184005091850060E0CD
:100E300070E0402B512B622B732B40935801509341
:100E4000590160935A0170935B01B09B1AC00196DF
:100E5000092E000CAA0BBB0BBC015527442780911F
:100E6000840090918500A0E0B0E0842B952BA62B08
:100E7000B72B8093580190935901A0935A01B093D6
:100E80005B01E0910402F0910502309739F066E0D1
:100E900070E080916C0190916D0109950E9426048B
:100EA000FF91EF91BF91AF919F918F917F916F9142
:100EB0005F914F913F912F911F910F910F900FBE16
:100EC0000F901F9018951F920F920FB60F9211243A
:100ED0000F931F932F933F934F935F936F937F9342
:100EE0008F939F93AF93BF93EF93FF93809156019E
:100EF00090915701AC01092E000C660B770B9A01FB
:100F000011270027409184005091850060E070E037
:100F1000402B512B622B732B409358015093590156
:100F200060935A0170935B01B09B1AC00196092E21
:100F3000000CAA0BBB0BBC015527442780918400F1
:100F400090918500A0E0B0E0842B952BA62BB72BC9
:100F50008093580190935901A0935A01B0935B017B
:100F6000E0910602F0910702309739F067E070E0F7
:100F700080916E0190916F0109950E942604FF9166
:100F8000EF91BF91AF919F918F917F916F915F9101
:100F90004F913F912F911F910F910F900FBE0F9086
:100FA0001F9018951F920F920FB60F9211240F9356
:100FB0001F932F933F934F935F936F937F938F93E1
:100FC0009F93AF93BF93EF93FF93809156019091BE
:100FD0005701AC01092E000C660B770B9A01112703
:100FE0000027409184005091850060E070E0402B24
:100FF000512B622B732B40935801509359016093EE
:101000005A0170935B01B09B1AC00196092E000C27
:10101000AA0BBB0BBC0155274427809184009091FB
:101020008500A0E0B0E0842B952BA62BB72B8093F6
:10103000580190935901A0935A01B0935B01E0913C
:101040000802F0910902309739F068E070E0809171
:1010500070019091710109950E942604FF91EF9112
:10106000BF91AF919F918F917F916F915F914F91C0
:101070003F912F911F910F910F900FBE0F901F90D6
:1010800018951F920F920FB60F9211240F931F9372
:101090002F933F934F935F936F937F938F939F9380
:1010A000AF93BF93EF93FF938091560190915701B7
:1010B000AC01092E000C660B770B9A011127002753
:1010C000409184005091850060E070E0402B512BEE
:1010D000622B732B409358015093590160935A012E
:1010E00070935B01B09B1AC00196092E000CAA0BED
:1010F000BB0BBC015527442780918400909185004B
:10110000A0E0B0E0842B952BA62BB72B8093580141
:1011100090935901A0935A01B0935B01E0910A02A8
:10112000F0910B02309739F069E070E08091720124
:101130009091730109950E942604FF91EF91BF9150
:10114000AF919F918F917F916F915F914F913F915F
:101150002F911F910F910F900FBE0F901F90189518
:101160001F920F920FB60F9211240F931F932F937C
:101170003F934F935F936F937F938F939F93AF931F
:10118000BF93EF93FF938091560190915701AC016B
:10119000092E000C660B770B9A011127002740914E
:1011A00084005091850060E070E0402B512B622B51
:1011B000732B409358015093590160935A017093D7
:1011C0005B01B09B1AC00196092E000CAA0BBB0B49
:1011D000BC01552744278091840090918500A0E0B0
:1011E000B0E0842B952BA62BB72B809358019093BE
:1011F0005901A0935A01B0935B01E0910C02F09168
:101200000D02309739F06AE070E08091740190919E
:10121000750109950E942604FF91EF91BF91AF914E
:101220009F918F917F916F915F914F913F912F91FE
:101230001F910F910F900FBE0F901F9018951F9246
:101240000F920FB60F9211240F931F932F933F937A
:101250004F935F936F937F938F939F93AF93BF93BE
:10126000EF93FF938091560190915701AC01092EA5
:10127000000C660B770B9A01112700274091840020
:101280005091850060E070E0402B512B622B732B56
:10129000409358015093590160935A0170935B0138
:1012A000B09B1AC00196092E000CAA0BBB0BBC0107
:1012B000552744278091840090918500A0E0B0E0FC
:1012C000842B952BA62BB72B809358019093590113
:1012D000A0935A01B0935B01E0910E02F0910F02CE
:1012E000309739F06BE070E0809176019091770152
:1012F00009950E942604FF91EF91BF91AF919F91B4
:101300008F917F916F915F914F913F912F911F919D
:101310000F910F900FBE0F901F9018951F920F9274
:101320000FB60F9211240F931F932F933F934F9358
:101330005F936F937F938F939F93AF93BF93EF933D
:10134000FF938091560190915701AC01092E000C3A
:10135000660B770B9A01112700274091840050916A
:10136000850060E070E0402B512B622B732B409383
:1013700058015093590160935A0170935B01B09BDF
:101380001AC00196092E000CAA0BBB0BBC015527F5
:1013900044278091840090918500A0E0B0E0842BE8
:1013A000952BA62BB72B8093580190935901A093AE
:1013B0005A01B0935B01E0911002F0911102309755
:1013C00039F06CE070E08091780190917901099595
:1013D0000E942604FF91EF91BF91AF919F918F9151
:1013E0007F916F915F914F913F912F911F910F913D
:1013F0000F900FBE0F901F9018951F920F920FB66F
:101400000F9211240F931F932F933F934F935F934A
:101410006F937F938F939F93AF93BF93EF93FF93BC
:101420008091560190915701AC01092E000C660B7A
:10143000770B9A0111270027409184005091850075
:1014400060E070E0402B512B622B732B40935801CE
:101450005093590160935A0170935B01B09B1AC07D
:101460000196092E000CAA0BBB0BBC015527442783
:101470008091840090918500A0E0B0E0842B952BB2
:10148000A62BB72B8093580190935901A0935A0132
:10149000B0935B01E0911202F0911302309739F0A2
:1014A0006DE070E080917A0190917B0109950E9436
:1014B0002604FF91EF91BF91AF919F918F917F9102
:1014C0006F915F914F913F912F911F910F910F90CD
:1014D0000FBE0F901F9018951F920F920FB60F928C
:1014E00011240F931F932F933F934F935F936F9309
:1014F0007F938F939F93AF93BF93EF93FF938091CD
:10150000560190915701AC01092E000C660B770B28
:101510009A0111270027409184005091850060E0D6
:1015200070E0402B512B622B732B4093580150934A
:10153000590160935A0170935B01B09B1AC00196E8
:10154000092E000CAA0BBB0BBC0155274427809128
:10155000840090918500A0E0B0E0842B952BA62B11
:10156000B72B8093580190935901A0935A01B093DF
:101570005B01E0911402F0911502309739F06EE0B2
:1015800070E080917C0190917D0109950E94260474
:10159000FF91EF91BF91AF919F918F917F916F914B
:1015A0005F914F913F912F911F910F910F900FBE1F
:1015B0000F901F9018951F920F920FB60F92112443
:1015C0000F931F932F933F934F935F936F937F934B
:1015D0008F939F93AF93BF93EF93FF9380915601A7
:1015E00090915701AC01092E000C660B770B9A0104
:1015F00011270027409184005091850060E070E041
:10160000402B512B622B732B40935801509359015F
:1016100060935A0170935B01B09B1AC00196092E2A
:10162000000CAA0BBB0BBC015527442780918400FA
:1016300090918500A0E0B0E0842B952BA62BB72BD2
:101640008093580190935901A0935A01B0935B0184
:10165000E0911602F0911702309739F06FE070E0D8
:1016600080917E0190917F0109950E942604FF914F
:10167000EF91BF91AF919F918F917F916F915F910A
:101680004F913F912F911F910F910F900FBE0F908F
:101690001F9018951F920F920FB60F9211240F935F
:1016A0001F932F933F934F935F936F937F938F93EA
:1016B0009F93AF93BF93EF93FF93809156019091C7
:1016C0005701AC01092E000C660B770B9A0111270C
:1016D0000027409184005091850060E070E0402B2D
:1016E000512B622B732B40935801509359016093F7
:1016F0005A0170935B01B09B1AC00196092E000C31
:10170000AA0BBB0BBC015527442780918400909104
:101710008500A0E0B0E0842B952BA62BB72B8093FF
:10172000580190935901A0935A01B0935B01E09145
:101730001802F0911902309739F060E170E0809161
:1017400080019091810109950E942604FF91EF91FB
:10175000BF91AF919F918F917F916F915F914F91C9
:101760003F912F911F910F910F900FBE0F901F90DF
:1017700018951F920F920FB60F9211240F931F937B
:101780002F933F934F935F936F937F938F939F9389
:10179000AF93BF93EF93FF938091560190915701C0
:1017A000AC01092E000C660B770B9A01112700275C
:1017B000409184005091850060E070E0402B512BF7
:1017C000622B732B409358015093590160935A0137
:1017D00070935B01B09B1AC00196092E000CAA0BF6
:1017E000BB0BBC0155274427809184009091850054
:1017F000A0E0B0E0842B952BA62BB72B809358014B
:1018000090935901A0935A01B0935B01E0911A02A1
:10181000F0911B02309739F061E170E08091820114
:101820009091830109950E942604FF91EF91BF9149
:10183000AF919F918F917F916F915F914F913F9168
:101840002F911F910F910F900FBE0F901F90189521
:101850000E942604789481E083BF8895FCCF1F9274
:101860000F920FB60F9211242F933F934F935F93D4
:101870006F937F938F939F93EF93FF938091560184
:101880009091570101969093570180935601E091F2
:101890005C01F0915D01309701F1428153816481D7
:1018A000758186179707C9F4CA0120918400309189
:1018B0008500421B530B4130510529F4809184006F
:1018C0009091850001969093890080938800EFE6BF
:1018D000F0E080818260808305C0EFE6F0E08081E7
:1018E0008D7F8083FF91EF919F918F917F916F9179
:1018F0005F914F913F912F910F900FBE0F901F90CE
:1019000018951F920F920FB60F921124CF92DF926B
:10191000EF92FF922F933F934F935F936F937F9339
:101920008F939F93AF93BF93EF93FF938091560153
:10193000909157016C01092E000CEE08FF0876010A
:10194000DD24CC24409184005091850060E070E05B
:10195000C42AD52AE62AF72AB09B1EC06C012FEFB5
:10196000C21AD20A0D2C000CEE08FF08D6019927E6
:101970008827C0908400D0908500E12CF12CC82AE3
:10198000D92AEA2AFB2A08C08CE591E00E94F103DB
:101990006EE571E00E948F03E0915C01F0915D01C2
:1019A000309769F082819381A481B5818C199D095A
:1019B000AE09BF09181619061A061B062CF7309730
:1019C00021F182819381A481B581209156013091CA
:1019D00057012A173B07C9F49C014091840050919C
:1019E0008500841B950B019731F420918400309180
:1019F00085002F5F3F4F3093890020938800EFE6EA
:101A0000F0E080818260808305C0EFE6F0E08081B5
:101A10008D7F80830E942604FF91EF91BF91AF914B
:101A20009F918F917F916F915F914F913F912F91F6
:101A3000FF90EF90DF90CF900F900FBE0F901F9010
:101A400018953F924F925F926F927F928F929F92E2
:101A5000AF92BF92CF92DF92EF92FF920F931F93BC
:101A6000CF93DF932B013C0149015A018FB7807856
:101A7000382EF89480E591E00E94F103EC011B8779
:101A80000A87FD86EC86DF86CE86332061F0E09102
:101A90004A01F0914B010280F381E02D8281938114
:101AA000A481B58108C08091580190915901A091FD
:101AB0005A01B0915B01480E591E6A1E7B1E4A8274
:101AC0005B826C827D82181419041A041B0444F092
:101AD0000F2E88248A94982CA82CFFE7BF2EF02D77
:101AE000840C951CA61CB71C8E829F82A886B98682
:101AF0002091560130915701C901032E000CAA0B09
:101B0000BB0BDC0199278827409184005091850008
:101B100060E070E0842B952BA62BB72BB09B13C0F5
:101B2000C9010196092E000CAA0BBB0BDC019927F9
:101B30008827409184005091850060E070E0842BFC
:101B4000952BA62BB72B481A590A6A0A7B0A14143C
:101B5000150416041704ACF56CE571E0CE010E9483
:101B6000C003E0915C01F0915D01309721F1828129
:101B70009381A481B58120915601309157012A1794
:101B80003B07C9F49C014091840050918500841B5F
:101B9000950B019731F420918400309185002F5FDF
:101BA0003F4F3093890020938800EFE6F0E080817A
:101BB0008260808339C0EFE6F0E080818D7F808392
:101BC00033C06EE571E0CE010E948F03332061F1D6
:101BD00080914E0190914F01892B31F1E0915E018E
:101BE000F0915F0186819781A085B185E0914C01DC
:101BF000F0914D010280F381E02D4681578160858F
:101C00007185841B950BA60BB70B72F48EE491E0E3
:101C10000E941C046CE471E00E94120480914C014B
:101C200090914D010E946F03332009F07894CE010A
:101C3000DF91CF911F910F91FF90EF90DF90CF90A8
:101C4000BF90AF909F908F907F906F905F904F90DC
:101C50003F900895CF92DF92EF92FF920F931F93E0
:101C6000CF93DF93EC017B016A011FB71078F894E2
:101C7000A881B981109719F435C0A081B18114965B
:101C8000ED91FC9115973097C1F720914A01309161
:101C90004B01A217B30711F0111107C0112309F46A
:101CA0004AC078948FEF9FEF4EC08A819B81009746
:101CB00019F0FC01158214823B832A83F901D58334
:101CC000C483CD010E946F03E0914A01F0914B0162
:101CD00082819381892B31F4112381F1789480E002
:101CE00090E031C080914A0190914B0199838883A3
:101CF000112329F08A819B81019709F07894B6011C
:101D0000CE01F7010995F82E092F8FB7F8941982A3
:101D100018828A819B818230910538F01B821A8259
:101D2000FC01158214820E946F03112351F07894F4
:101D30008F2D902F08C08FEF9FEF05C080E090E0BF
:101D400002C08F2D902FDF91CF911F910F91FF90A7
:101D5000EF90DF90CF90089500914A0110914B01D0
:101D60008EE591E00E94F103EC01F80193838283F8
:101D700078946C857D854E855F858A859B850E94DC
:101D80002A0E8FB7F89460E571E0CE010E94080436
:101D9000E0914C01F0914D010190F081E02DC28164
:101DA000D381E0915E01F0915F013097A1F020971F
:101DB00099F286819781A085B1854E815F81688582
:101DC0007985841B950BA60BB70B181619061A06F6
:101DD0001B060CF0C1CF8CE491E00E941C046EE461
:101DE00071E00E941204A0914C01B0914D0102C01B
:101DF000A081B1811496ED91FC9115973097C1F7B0
:101E0000CD010E946F03A8CFFC014231B8F49FB707
:101E10009078F89450E0440F551FDA01A05ABE4F55
:101E2000ED93FC93DA01A850BE4F6D937C9321E0B3
:101E300030E033832283992309F0789408958C014C
:101E40007B016A018FB7F8940E94D0027894E11464
:101E5000F10441F020E030E0A90160E070E0CB0146
:101E60000E94210D8FB7F8940E94280CCF92DF9228
:101E7000EF92FF920F931F93CF93DF93EC01EC81CE
:101E8000FD8142E060E084810E94E901EC81FD81F6
:101E900042E064E084850E94E9018E81811107C0DF
:101EA000ECEEF0E0908184E08927808306C0EEEEBE
:101EB000F0E0908184E089278083C12CD12C0F2E03
:101EC000F6E3EF2EFFE0FF2EF02D8E0120E030E054
:101ED000A90168E371E080E090E00E94210DDF91AC
:101EE000CF911F910F91FF90EF90DF90CF900895C9
:101EF000FC0166830895FC01248135818681E82FE9
:101F0000F0E0EE0FFF1FEE0FFF1FEE0FFF1FE20FBF
:101F1000F31F8481680F64830895FC014481558117
:101F20002681E22FF0E0EE0FFF1FEE0FFF1FEE0FF6
:101F3000FF1FE40FF51F3481311107C0DC01A20F30
:101F4000B11D18968C9184830895FC01E20FF11D58
:101F500030870895AF92BF92CF92DF92EF92FF92B7
:101F60000F931F93CF93DF935C01C0E0D0E01DC0BF
:101F7000F50104811581CE01880F991F880F991FE3
:101F8000880F991F080F191FC12CD12C0F2EFCE4AC
:101F9000EF2EF2E0FF2EF02D20E030E0A90160E00E
:101FA00070E0CB010E94210D2196F501878190E020
:101FB000C817D907ECF2C12CD12C0F2EF6E3EF2E67
:101FC000FFE0FF2EF02D850120E030E0A90160E068
:101FD00070E0CB010E94210DDF91CF911F910F91F5
:101FE000FF90EF90DF90CF90BF90AF90089597FB58
:101FF000072E16F4009407D077FD09D00E941A101E
:1020000007FC05D03EF4909581959F4F08957095FB
:1020100061957F4F0895A29FB001B39FC001A39F18
:10202000700D811D1124911DB29F700D811D112411
:10203000911D0895AA1BBB1B51E107C0AA1FBB1F1E
:10204000A617B70710F0A61BB70B881F991F5A9544
:10205000A9F780959095BC01CD010895DC012D92E2
:102060003D924D925D926D927D928D929D92AD9238
:10207000BD92CD92DD92ED92FD920D931D93CD9385
:10208000DD93FF91EF918DB78D938EB78D938FB7C1
:102090008D93ED93FD93882799270994DC01CB015B
:1020A00081309105811D2D903D904D905D906D90FA
:1020B0007D908D909D90AD90BD90CD90DD90ED90F8
:1020C000FD900D911D91CD91DD91ED91FD910D90C2
:1020D000F894FEBF0FBEEDBFED91FD910994F89409
:0220E000FFCF30
:1020E2005115000010010000111E0000111B00001C
:1020F200500B0000411B0000411F000011010000B5
:10210200511F0000511B000000000000300152016D
:10211200000000003A01000200000000000001047B
:10212200520100000000010652011C021C0284013F
:02213200390270
:00000001FF
