S00F00006C616262335F332E73726563BF
S11300000C942E000C944B000C944B000C946A013D
S11300100C944B000C944B000C944B000C949401E6
S11300200C944B000C944B000C944B000C944B0020
S11300300C944B000C944B000C944B000C944B0010
S11300400C944B000C944B000C944B000C944B0000
S11300500C944B000C944B000C944B0011241FBEC9
S1130060CFEFD4E0DEBFCDBF11E0A0E0B1E0E0E926
S1130070F6E002C005900D92AE32B107D9F723E045
S1130080AEE2B1E001C01D92A435B207E1F70E94CF
S1130090BE010C9446030C940000E4EEF0E0808171
S11300A08068808380818064808380818F7E808368
S11300B080818E7F8083E5EEF0E08081806880839C
S11300C080818F7B8083808180638083808187604F
S11300D08083E6EEF0E080818F7880838081876082
S11300E08083E7EEF0E080818F71808380818F6070
S11300F080830895CF93C62F66307105C0F575953A
S11301006795FB01E451FF4F90ED980F9A3060F42E
S1130110A82FB0E0D097AA0FBB1FAA0FBB1FA050F7
S1130120BF4F4D915C9102C040E050E020E030E0D0
S11301301BC0942F9F70529542954F7045275F7056
S11301404527C0FD05C08081807F892B808309C03D
S11301508081682F6F7070E1979FC0011124862BF6
S1130160808335962F5F3F4F2430310514F3CF91B0
S113017008958F929F92AF92BF92CF92DF92EF92A7
S1130180FF924B015C0184E088169104A104B10440
S11301900CF180FE22C00F2EF3E0CF2ED12CE12CE7
S11301A0F12CF02D0FC0C501B401A70196010E94E6
S11301B0C402672B682B692B99F08FEFC81AD80AF1
S11301C0E80AF80AC814D904EA04FB0464F381E0D9
S11301D090E008C081E090E005C080E090E002C0BB
S11301E080E090E0FF90EF90DF90CF90BF90AF90D1
S11301F09F908F900895E4EFF0E0908181E089274B
S113020080830895FFCF0E94FB000895E0912801A8
S1130210F09129011182108208958F929F92AF92DA
S1130220BF92CF92DF92EF92FF92CF93DF934B0175
S11302305C01EA0124E630E040E050E00E94C402A0
S11302400F2EFAE0CF2ED12CE12CF12CF02DA701AA
S113025096010E94C402BE0180E3820F0E947A00CC
S11302602196C501B401A70196010E94C402862FFC
S1130270BE01805D0E947A00DF91CF91FF90EF90E4
S1130280DF90CF90BF90AF909F908F900895EC0136
S1130290C12CD12C7601C394C701B6010E94B900C8
S11302A0892B29F0AE01C701B6010E940D018FEF21
S11302B0C81AD80AE80AF80AEFCF609132016F5FD2
S11302C06093320170E080E090E044E050E00E94EE
S11302D00D0108951F920F920FB60F9211242F93C0
S11302E03F934F935F936F937F938F939F93AF93BA
S11302F0BF93EF93FF931F9B06C060E070E08DE512
S113030091E00E945F02FF91EF91BF91AF919F91A5
S11303108F917F916F915F914F913F912F910F90AA
S11303200FBE0F901F9018951F920F920FB60F9249
S113033011242F933F934F935F936F937F938F93E6
S11303409F93AF93BF93EF93FF930E94060160E0E6
S113035070E083E091E00E945F02FF91EF91BF9112
S1130360AF919F918F917F916F915F914F913F9149
S11303702F910F900FBE0F901F901895E9EFF0E0AA
S11303808081816080830E944D0082E49FE090938D
S1130390890080938800E0912801F091290111825D
S11303A0108260E070E087E491E00E945F0260E008
S11303B070E082E091E00E945F0280E090E00895A6
S11303C0E1E6F0E080E880831082E1E8F0E08081FB
S11303D08560808385B1806885B984B7806884BF6F
S11303E0E9E6F0E08081836080838DB381688DBB12
S11303F0ECE6F0E0808180688083EFE6F0E08081C5
S11304008260808380E090E015C0AC014F5F5F4F55
S11304106DE6649F9001659F300D112420563E4F78
S1130420689FF001699FF00D1124E056FE4F35835B
S11304302483CA018330910544F31092EC02109294
S1130440EB0281E090E090932F0180932E01789449
S11304500895FB012081318191838083FC013583E0
S113046024830895DC01ED91FC911197309709F4F0
S1130470FFCF248135812D933C93CF010895CF93F1
S1130480DF9300D0CDB7DEB79A83898380912A01A8
S113049090912B0106960E940503892B59F48981BA
S11304A09A8190932B0180932A0161E070E0069673
S11304B00E9425030F900F90DF91CF910895EF9242
S11304C0FF920F931F93CF93DF9300D0CDB7DEB786
S11304D07C018B01F89480912E0190912F01892B3E
S11304E011F40E94E00160E371E080912A0190918F
S11304F02B010E9429028CE291E00E9432029A832D
S11305008983FC01F182E0821383028315821482C1
S113051006960E9405030197E1F47894A0912A01BC
S1130520B0912B01ED91FC91119712968D919C91B4
S113053013970995F8946CE271E080912A019091E7
S11305402B010E94290280E391E00E9432020E9462
S11305503F02E981FA81369689819A8187599F4FB2
S1130560918B808BE981FA81918F808F7894898136
S11305709A810E943F020F900F90DF91CF911F91BB
S11305800F91FF90EF900895052E97FB1EF40094B1
S11305900E94DB0257FD07D00E94E30207FC03D050
S11305A04EF40C94DB0250954095309521953F4FC5
S11305B04F4F5F4F089590958095709561957F4F4B
S11305C08F4F9F4F0895A1E21A2EAA1BBB1BFD015A
S11305D00DC0AA1FBB1FEE1FFF1FA217B307E4071E
S11305E0F50720F0A21BB30BE40BF50B661F771F76
S11305F0881F991F1A9469F7609570958095909556
S11306009B01AC01BD01CF010895DC012D923D9207
S11306104D925D926D927D928D929D92AD92BD921E
S1130620CD92DD92ED92FD920D931D93CD93DD93CA
S1130630FF91EF918DB78D938EB78D938FB78D9377
S1130640ED93FD93882799270994DC01CB01813030
S11306509105811D2D903D904D905D906D907D9004
S11306608D909D90AD90BD90CD90DD90ED90FD90DE
S11306700D911D91CD91DD91ED91FD910D90F89429
S1130680FEBF0FBEEDBFED91FD910994F894FFCF2D
S11306905115000010010000111E0000111B000084
S11306A0500B0000411B0000411F0000110100001D
S11106B0511F0000511B000084003301A00103
S9030000FC
