:100000000C942E000C944B000C944B000C9410019B
:100010000C944B000C944B000C944B000C94380146
:100020000C944B000C944B000C944B000C944B0024
:100030000C944B000C944B000C944B000C944B0014
:100040000C944B000C944B000C944B000C944B0004
:100050000C944B000C944B000C944B0011241FBECD
:10006000CFEFD4E0DEBFCDBF11E0A0E0B1E0E8E427
:10007000F7E002C005900D92AE32B107D9F723E048
:10008000AEE2B1E001C01D92A436B207E1F70E94D2
:10009000C9010C94A2030C940000E4EEF0E080810E
:1000A0008068808380818064808380818F7E80836C
:1000B00080818E7F8083E5EEF0E0808180688083A0
:1000C00080818F7B80838081806380838081876053
:1000D0008083E6EEF0E080818F7880838081876086
:1000E0008083E7EEF0E080818F71808380818F6074
:1000F00080830895CF93C62F66307105C0F575953E
:100100006795FB01E451FF4F90ED980F9A3060F432
:10011000A82FB0E0D097AA0FBB1FAA0FBB1FA050FB
:10012000BF4F4D915C9102C040E050E020E030E0D4
:100130001BC0942F9F70529542954F7045275F705A
:100140004527C0FD05C08081807F892B808309C041
:100150008081682F6F7070E1979FC0011124862BFA
:10016000808335962F5F3F4F2430310514F3CF91B4
:1001700008958F929F92AF92BF92CF92DF92EF92AB
:10018000FF924B015C0184E088169104A104B10444
:100190000CF180FE22C00F2EF3E0CF2ED12CE12CEB
:1001A000F12CF02D0FC0C501B401A70196010E94EA
:1001B0002003672B682B692B99F08FEFC81AD80A98
:1001C000E80AF80AC814D904EA04FB0464F381E0DD
:1001D00090E008C081E090E005C080E090E002C0BF
:1001E00080E090E0FF90EF90DF90CF90BF90AF90D5
:1001F0009F908F900895E4EFF0E0908181E089274F
:10020000808308958AE391E00E94DC020E94FB0053
:10021000F9CFE0912801F09129011182108208950F
:100220001F920F920FB60F9211242F933F934F936B
:100230005F936F937F938F939F93AF93BF93EF934E
:10024000FF931F9B04C086E391E00E94F802FF9198
:10025000EF91BF91AF919F918F917F916F915F913E
:100260004F913F912F910F900FBE0F901F901895B7
:100270001F920F920FB60F9211242F933F934F931B
:100280005F936F937F938F939F93AF93BF93EF93FE
:10029000FF938AE391E00E94F8020E940901FF9116
:1002A000EF91BF91AF919F918F917F916F915F91EE
:1002B0004F913F912F910F900FBE0F901F90189567
:1002C0008F929F92AF92BF92CF92DF92EF92FF9266
:1002D000CF93DF934B015C01EA0124E630E040E07C
:1002E00050E00E9420030F2EFAE0CF2ED12CE12CFB
:1002F000F12CF02DA70196010E942003BE0180E39E
:10030000820F0E947A002196C501B401A7019601CF
:100310000E942003862FBE01805D0E947A00DF913B
:10032000CF91FF90EF90DF90CF90BF90AF909F90D4
:100330008F900895EC01C12CD12C7601C394C70194
:10034000B6010E94B900892B29F0AE01C701B601A0
:100350000E9460018FEFC81AD80AE80AF80AEFCFA6
:1003600086E391E00E94DC028EE291E00E94DC02D2
:10037000609142016F5F6093420170E080E090E025
:1003800044E050E00E9460018EE291E00E94F80299
:10039000E7CFE9EFF0E08081816080830E944D002B
:1003A00082E49FE09093890080938800E091280187
:1003B000F0912901118210828AE391E00E94DC020F
:1003C00086E391E00E94DC0282E391E00E94DC027D
:1003D00060E070E082E091E00E94770260E070E00F
:1003E00080EB91E00E94770280E090E00E949A0109
:1003F000E1E6F0E080E880831082E1E8F0E08081CF
:100400008560808385B1806885B984B7806884BF42
:10041000E9E6F0E08081836080838DB381688DBBE5
:10042000ECE6F0E0808180688083EFE6F0E0808198
:100430008260808380E090E015C0AC014F5F5F4F29
:100440006DE6649F9001659F300D112420553E4F4D
:10045000689FF001699FF00D1124E055FE4F358330
:100460002483CA018330910544F31092FC02109258
:10047000FB0281E090E090933F0180933E017894ED
:100480000895FB012081318191838083FC013583B4
:1004900024830895DC01ED91FC911197309709F4C4
:1004A000FFCF248135812D933C93CF010895CF93C5
:1004B000DF9300D0CDB7DEB79A83898380912A017C
:1004C00090912B0106960E946103892B59F4898132
:1004D0009A8190932B0180932A0161E070E0069647
:1004E0000E9481030F900F90DF91CF910895EF92BA
:1004F000FF920F931F93CF93DF9300D0CDB7DEB75A
:100500007C018B01F89480913E0190913F01892BF1
:1005100011F40E94F80160E471E080912A01909149
:100520002B010E9441028CE291E00E944A029A83D0
:100530008983FC01F182E082138302831582148295
:1005400006960E9461030197E1F47894A0912A0134
:10055000B0912B01ED91FC91119712968D919C9188
:1005600013970995F8946CE271E080912A019091BB
:100570002B010E94410280E491E00E944A020E9405
:100580005702E981FA81369689819A8187599F4F6E
:10059000918B808BE981FA81918F808F789489810A
:1005A0009A810E9457020F900F90DF91CF911F9177
:1005B0000F91FF90EF900895F894FC012081318114
:1005C000232B29F421E030E0318320830FC0BC01CC
:1005D0006E5F7F4F80912A0190912B010E94410212
:1005E00080E491E00E944A020E94570278940895A4
:1005F000CF93DF93F894FC0120813181232BE1F02C
:10060000EC0160E471E080912A0190912B010E943D
:1006100041028A819B81892B39F0CE0102960E948A
:100620004A020E94570208C01982188280E491E0B1
:100630000E944A020E9457027894DF91CF91089558
:10064000052E97FB1EF400940E94370357FD07D038
:100650000E943F0307FC03D04EF40C9437035095DF
:100660004095309521953F4F4F4F5F4F089590959E
:100670008095709561957F4F8F4F9F4F0895A1E2B0
:100680001A2EAA1BBB1BFD010DC0AA1FBB1FEE1F0C
:10069000FF1FA217B307E407F50720F0A21BB30B57
:1006A000E40BF50B661F771F881F991F1A9469F7D3
:1006B00060957095809590959B01AC01BD01CF012F
:1006C0000895DC012D923D924D925D926D927D9246
:1006D0008D929D92AD92BD92CD92DD92ED92FD9262
:1006E0000D931D93CD93DD93FF91EF918DB78D9376
:1006F0008EB78D938FB78D93ED93FD9388279927B0
:100700000994DC01CB0181309105811D2D903D9034
:100710004D905D906D907D908D909D90AD90BD9031
:10072000CD90DD90ED90FD900D911D91CD91DD91DD
:10073000ED91FD910D90F894FEBF0FBEEDBFED91D0
:08074000FD910994F894FFCF2C
:100748005115000010010000111E0000111B0000CF
:10075800500B0000411B0000411F00001101000068
:0E076800511F0000511B000084004301B0012E
:00000001FF
